{
  "contractName": "Transactions",
  "abi": [
    {
      "anonymous": false,
      "inputs": [
        {
          "indexed": false,
          "internalType": "address",
          "name": "from",
          "type": "address"
        },
        {
          "indexed": false,
          "internalType": "address",
          "name": "receiver",
          "type": "address"
        },
        {
          "indexed": false,
          "internalType": "uint256",
          "name": "amount",
          "type": "uint256"
        },
        {
          "indexed": false,
          "internalType": "string",
          "name": "message",
          "type": "string"
        },
        {
          "indexed": false,
          "internalType": "uint256",
          "name": "timestamp",
          "type": "uint256"
        }
      ],
      "name": "Transfer",
      "type": "event"
    },
    {
      "inputs": [],
      "name": "transactionCount",
      "outputs": [
        {
          "internalType": "uint256",
          "name": "",
          "type": "uint256"
        }
      ],
      "stateMutability": "view",
      "type": "function"
    },
    {
      "inputs": [
        {
          "internalType": "address payable",
          "name": "receiver",
          "type": "address"
        },
        {
          "internalType": "uint256",
          "name": "amount",
          "type": "uint256"
        },
        {
          "internalType": "string",
          "name": "message",
          "type": "string"
        }
      ],
      "name": "addToBlockchain",
      "outputs": [],
      "stateMutability": "nonpayable",
      "type": "function"
    },
    {
      "inputs": [],
      "name": "getAllTransactions",
      "outputs": [
        {
          "components": [
            {
              "internalType": "address",
              "name": "sender",
              "type": "address"
            },
            {
              "internalType": "address",
              "name": "receiver",
              "type": "address"
            },
            {
              "internalType": "uint256",
              "name": "amount",
              "type": "uint256"
            },
            {
              "internalType": "string",
              "name": "message",
              "type": "string"
            },
            {
              "internalType": "uint256",
              "name": "timestamp",
              "type": "uint256"
            }
          ],
          "internalType": "struct Transactions.TransferStruct[]",
          "name": "",
          "type": "tuple[]"
        }
      ],
      "stateMutability": "view",
      "type": "function"
    },
    {
      "inputs": [],
      "name": "getTransactionCount",
      "outputs": [
        {
          "internalType": "uint256",
          "name": "",
          "type": "uint256"
        }
      ],
      "stateMutability": "view",
      "type": "function"
    }
  ],
  "bytecode": "0x608060405234801561001057600080fd5b50610b7e806100206000396000f3fe608060405234801561001057600080fd5b506004361061004c5760003560e01c806327506f53146100515780632e7700f01461006f578063b77bf6001461008d578063eb12da4a146100ab575b600080fd5b6100596100c7565b60405161006691906106ef565b60405180910390f35b610077610278565b6040516100849190610720565b60405180910390f35b610095610281565b6040516100a29190610720565b60405180910390f35b6100c560048036038101906100c091906108ee565b610287565b005b60606001805480602002602001604051908101604052809291908181526020016000905b8282101561026f57838290600052602060002090600502016040518060a00160405290816000820160009054906101000a900473ffffffffffffffffffffffffffffffffffffffff1673ffffffffffffffffffffffffffffffffffffffff1673ffffffffffffffffffffffffffffffffffffffff1681526020016001820160009054906101000a900473ffffffffffffffffffffffffffffffffffffffff1673ffffffffffffffffffffffffffffffffffffffff1673ffffffffffffffffffffffffffffffffffffffff168152602001600282015481526020016003820180546101d49061098c565b80601f01602080910402602001604051908101604052809291908181526020018280546102009061098c565b801561024d5780601f106102225761010080835404028352916020019161024d565b820191906000526020600020905b81548152906001019060200180831161023057829003601f168201915b50505050508152602001600482015481525050815260200190600101906100eb565b50505050905090565b60008054905090565b60005481565b600080815480929190610299906109ed565b919050555060016040518060a001604052803373ffffffffffffffffffffffffffffffffffffffff1681526020018573ffffffffffffffffffffffffffffffffffffffff16815260200184815260200183815260200142815250908060018154018082558091505060019003906000526020600020906005020160009091909190915060008201518160000160006101000a81548173ffffffffffffffffffffffffffffffffffffffff021916908373ffffffffffffffffffffffffffffffffffffffff16021790555060208201518160010160006101000a81548173ffffffffffffffffffffffffffffffffffffffff021916908373ffffffffffffffffffffffffffffffffffffffff1602179055506040820151816002015560608201518160030190805190602001906103d0929190610421565b506080820151816004015550507fc4b32d7ff75a51e487f3cbb5d3202f2efecca1f4c2b987e0039c1d3220b48a833384848442604051610414959493929190610aee565b60405180910390a1505050565b82805461042d9061098c565b90600052602060002090601f01602090048101928261044f5760008555610496565b82601f1061046857805160ff1916838001178555610496565b82800160010185558215610496579182015b8281111561049557825182559160200191906001019061047a565b5b5090506104a391906104a7565b5090565b5b808211156104c05760008160009055506001016104a8565b5090565b600081519050919050565b600082825260208201905092915050565b6000819050602082019050919050565b600073ffffffffffffffffffffffffffffffffffffffff82169050919050565b600061051b826104f0565b9050919050565b61052b81610510565b82525050565b6000819050919050565b61054481610531565b82525050565b600081519050919050565b600082825260208201905092915050565b60005b83811015610584578082015181840152602081019050610569565b83811115610593576000848401525b50505050565b6000601f19601f8301169050919050565b60006105b58261054a565b6105bf8185610555565b93506105cf818560208601610566565b6105d881610599565b840191505092915050565b600060a0830160008301516105fb6000860182610522565b50602083015161060e6020860182610522565b506040830151610621604086018261053b565b506060830151848203606086015261063982826105aa565b915050608083015161064e608086018261053b565b508091505092915050565b600061066583836105e3565b905092915050565b6000602082019050919050565b6000610685826104c4565b61068f81856104cf565b9350836020820285016106a1856104e0565b8060005b858110156106dd57848403895281516106be8582610659565b94506106c98361066d565b925060208a019950506001810190506106a5565b50829750879550505050505092915050565b60006020820190508181036000830152610709818461067a565b905092915050565b61071a81610531565b82525050565b60006020820190506107356000830184610711565b92915050565b6000604051905090565b600080fd5b600080fd5b600061075a826104f0565b9050919050565b61076a8161074f565b811461077557600080fd5b50565b60008135905061078781610761565b92915050565b61079681610531565b81146107a157600080fd5b50565b6000813590506107b38161078d565b92915050565b600080fd5b600080fd5b7f4e487b7100000000000000000000000000000000000000000000000000000000600052604160045260246000fd5b6107fb82610599565b810181811067ffffffffffffffff8211171561081a576108196107c3565b5b80604052505050565b600061082d61073b565b905061083982826107f2565b919050565b600067ffffffffffffffff821115610859576108586107c3565b5b61086282610599565b9050602081019050919050565b82818337600083830152505050565b600061089161088c8461083e565b610823565b9050828152602081018484840111156108ad576108ac6107be565b5b6108b884828561086f565b509392505050565b600082601f8301126108d5576108d46107b9565b5b81356108e584826020860161087e565b91505092915050565b60008060006060848603121561090757610906610745565b5b600061091586828701610778565b9350506020610926868287016107a4565b925050604084013567ffffffffffffffff8111156109475761094661074a565b5b610953868287016108c0565b9150509250925092565b7f4e487b7100000000000000000000000000000000000000000000000000000000600052602260045260246000fd5b600060028204905060018216806109a457607f821691505b602082108114156109b8576109b761095d565b5b50919050565b7f4e487b7100000000000000000000000000000000000000000000000000000000600052601160045260246000fd5b60006109f882610531565b91507fffffffffffffffffffffffffffffffffffffffffffffffffffffffffffffffff821415610a2b57610a2a6109be565b5b600182019050919050565b610a3f81610510565b82525050565b6000819050919050565b6000610a6a610a65610a60846104f0565b610a45565b6104f0565b9050919050565b6000610a7c82610a4f565b9050919050565b6000610a8e82610a71565b9050919050565b610a9e81610a83565b82525050565b600082825260208201905092915050565b6000610ac08261054a565b610aca8185610aa4565b9350610ada818560208601610566565b610ae381610599565b840191505092915050565b600060a082019050610b036000830188610a36565b610b106020830187610a95565b610b1d6040830186610711565b8181036060830152610b2f8185610ab5565b9050610b3e6080830184610711565b969550505050505056fea264697066735822122010f2199f745308861e9562e0ee4fe36d09a1e967deacf6cc6a1614a3294f9e8364736f6c634300080c0033",
  "immutableReferences": {},
  "source": "//SPDX-License-Identifier: Unlicense\r\n\r\npragma solidity ^0.8.12;\r\n\r\ncontract Transactions{\r\n    uint256 public transactionCount;\r\n\r\n    event Transfer(address from, address receiver, uint amount, string message, uint256 timestamp);\r\n\r\n    struct TransferStruct{\r\n        address sender;\r\n        address receiver;\r\n        uint amount;\r\n        string message;\r\n        uint256 timestamp;\r\n    }\r\n\r\nTransferStruct [] transactions;\r\n\r\nfunction addToBlockchain(address payable receiver , uint amount , string memory message) public {\r\ntransactionCount++;\r\ntransactions.push(TransferStruct(msg.sender, receiver, amount, message, block.timestamp));\r\n\r\nemit Transfer(msg.sender, receiver, amount, message, block.timestamp);\r\n}\r\n\r\nfunction getAllTransactions() public view returns(TransferStruct[] memory) {\r\n    \r\nreturn transactions;\r\n}\r\n\r\nfunction getTransactionCount() public view returns (uint256)  {\r\n    return transactionCount;\r\n}\r\n\r\n\r\n\r\n\r\n}",
  "sourcePath": "D:\\VS CODE\\VS cOde files\\BLOCKCHAIN\\Final_project\\gitse2\\student_support_platform for essential resources\\smartContracts\\contracts\\Transactions.sol",
  "compiler": {
    "name": "solc",
    "version": "0.8.12+commit.f00d7308.Emscripten.clang"
  },
  "schemaVersion": "3.4.15",
  "updatedAt": "2023-12-21T09:40:06.049Z",
  "devdoc": {
    "kind": "dev",
    "methods": {},
    "version": 1
  },
  "userdoc": {
    "kind": "user",
    "methods": {},
    "version": 1
  }
}